{
  "_format": "hh-sol-artifact-1",
  "contractName": "Bank",
  "sourceName": "contracts/Bank.sol",
  "abi": [
    {
      "inputs": [],
      "stateMutability": "nonpayable",
      "type": "constructor"
    },
    {
      "inputs": [],
      "name": "bankName",
      "outputs": [
        {
          "internalType": "string",
          "name": "",
          "type": "string"
        }
      ],
      "stateMutability": "view",
      "type": "function"
    },
    {
      "inputs": [],
      "name": "bankOwner",
      "outputs": [
        {
          "internalType": "address",
          "name": "",
          "type": "address"
        }
      ],
      "stateMutability": "view",
      "type": "function"
    },
    {
      "inputs": [
        {
          "internalType": "address",
          "name": "",
          "type": "address"
        }
      ],
      "name": "customerBalance",
      "outputs": [
        {
          "internalType": "uint256",
          "name": "",
          "type": "uint256"
        }
      ],
      "stateMutability": "view",
      "type": "function"
    },
    {
      "inputs": [],
      "name": "depositMoney",
      "outputs": [],
      "stateMutability": "payable",
      "type": "function"
    },
    {
      "inputs": [],
      "name": "getBankBalance",
      "outputs": [
        {
          "internalType": "uint256",
          "name": "",
          "type": "uint256"
        }
      ],
      "stateMutability": "view",
      "type": "function"
    },
    {
      "inputs": [],
      "name": "getCustomerBalance",
      "outputs": [
        {
          "internalType": "uint256",
          "name": "",
          "type": "uint256"
        }
      ],
      "stateMutability": "view",
      "type": "function"
    },
    {
      "inputs": [
        {
          "internalType": "string",
          "name": "_name",
          "type": "string"
        }
      ],
      "name": "setBankName",
      "outputs": [],
      "stateMutability": "nonpayable",
      "type": "function"
    },
    {
      "inputs": [
        {
          "internalType": "address payable",
          "name": "_to",
          "type": "address"
        },
        {
          "internalType": "uint256",
          "name": "_total",
          "type": "uint256"
        }
      ],
      "name": "withdrawMoney",
      "outputs": [],
      "stateMutability": "nonpayable",
      "type": "function"
    }
  ],
  "bytecode": "0x608060405234801561001057600080fd5b50336000806101000a81548173ffffffffffffffffffffffffffffffffffffffff021916908373ffffffffffffffffffffffffffffffffffffffff160217905550610c65806100606000396000f3fe60806040526004361061007b5760003560e01c80637b83b50b1161004e5780637b83b50b1461011b578063a853409a14610146578063e147aaa714610171578063f274c8971461019c5761007b565b806316c05aa21461008057806327d358011461008a57806337ebe47b146100b557806370142690146100f2575b600080fd5b6100886101c5565b005b34801561009657600080fd5b5061009f610261565b6040516100ac91906108e6565b60405180910390f35b3480156100c157600080fd5b506100dc60048036038101906100d7919061069c565b6102ef565b6040516100e99190610968565b60405180910390f35b3480156100fe57600080fd5b5061011960048036038101906101149190610701565b610307565b005b34801561012757600080fd5b506101306103af565b60405161013d9190610968565b60405180910390f35b34801561015257600080fd5b5061015b610446565b6040516101689190610968565b60405180910390f35b34801561017d57600080fd5b5061018661048d565b60405161019391906108cb565b60405180910390f35b3480156101a857600080fd5b506101c360048036038101906101be91906106c5565b6104b1565b005b6000341415610209576040517f08c379a000000000000000000000000000000000000000000000000000000000815260040161020090610908565b60405180910390fd5b34600260003373ffffffffffffffffffffffffffffffffffffffff1673ffffffffffffffffffffffffffffffffffffffff16815260200190815260200160002060008282546102589190610a00565b92505081905550565b6001805461026e90610b1a565b80601f016020809104026020016040519081016040528092919081815260200182805461029a90610b1a565b80156102e75780601f106102bc576101008083540402835291602001916102e7565b820191906000526020600020905b8154815290600101906020018083116102ca57829003601f168201915b505050505081565b60026020528060005260406000206000915090505481565b60008054906101000a900473ffffffffffffffffffffffffffffffffffffffff1673ffffffffffffffffffffffffffffffffffffffff163373ffffffffffffffffffffffffffffffffffffffff1614610395576040517f08c379a000000000000000000000000000000000000000000000000000000000815260040161038c90610928565b60405180910390fd5b80600190805190602001906103ab929190610552565b5050565b60008060009054906101000a900473ffffffffffffffffffffffffffffffffffffffff1673ffffffffffffffffffffffffffffffffffffffff163373ffffffffffffffffffffffffffffffffffffffff1614610440576040517f08c379a000000000000000000000000000000000000000000000000000000000815260040161043790610948565b60405180910390fd5b47905090565b6000600260003373ffffffffffffffffffffffffffffffffffffffff1673ffffffffffffffffffffffffffffffffffffffff16815260200190815260200160002054905090565b60008054906101000a900473ffffffffffffffffffffffffffffffffffffffff1681565b80600260003373ffffffffffffffffffffffffffffffffffffffff1673ffffffffffffffffffffffffffffffffffffffff16815260200190815260200160002060008282546105009190610a56565b925050819055508173ffffffffffffffffffffffffffffffffffffffff166108fc829081150290604051600060405180830381858888f1935050505015801561054d573d6000803e3d6000fd5b505050565b82805461055e90610b1a565b90600052602060002090601f01602090048101928261058057600085556105c7565b82601f1061059957805160ff19168380011785556105c7565b828001600101855582156105c7579182015b828111156105c65782518255916020019190600101906105ab565b5b5090506105d491906105d8565b5090565b5b808211156105f15760008160009055506001016105d9565b5090565b6000610608610603846109b4565b610983565b90508281526020810184848401111561062057600080fd5b61062b848285610ad8565b509392505050565b60008135905061064281610bea565b92915050565b60008135905061065781610c01565b92915050565b600082601f83011261066e57600080fd5b813561067e8482602086016105f5565b91505092915050565b60008135905061069681610c18565b92915050565b6000602082840312156106ae57600080fd5b60006106bc84828501610633565b91505092915050565b600080604083850312156106d857600080fd5b60006106e685828601610648565b92505060206106f785828601610687565b9150509250929050565b60006020828403121561071357600080fd5b600082013567ffffffffffffffff81111561072d57600080fd5b6107398482850161065d565b91505092915050565b61074b81610a8a565b82525050565b600061075c826109e4565b61076681856109ef565b9350610776818560208601610ae7565b61077f81610bd9565b840191505092915050565b60006107976029836109ef565b91507f596f75206e65656420746f206465706f73697420736f6d6520616d6f756e742060008301527f6f66206d6f6e65792100000000000000000000000000000000000000000000006020830152604082019050919050565b60006107fd6031836109ef565b91507f596f75206d75737420626520746865206f776e657220746f207365742074686560008301527f206e616d65206f66207468652062616e6b0000000000000000000000000000006020830152604082019050919050565b60006108636036836109ef565b91507f596f75206d75737420626520746865206f776e6572206f66207468652062616e60008301527f6b20746f2073656520616c6c2062616c616e6365732e000000000000000000006020830152604082019050919050565b6108c581610ace565b82525050565b60006020820190506108e06000830184610742565b92915050565b600060208201905081810360008301526109008184610751565b905092915050565b600060208201905081810360008301526109218161078a565b9050919050565b60006020820190508181036000830152610941816107f0565b9050919050565b6000602082019050818103600083015261096181610856565b9050919050565b600060208201905061097d60008301846108bc565b92915050565b6000604051905081810181811067ffffffffffffffff821117156109aa576109a9610baa565b5b8060405250919050565b600067ffffffffffffffff8211156109cf576109ce610baa565b5b601f19601f8301169050602081019050919050565b600081519050919050565b600082825260208201905092915050565b6000610a0b82610ace565b9150610a1683610ace565b9250827fffffffffffffffffffffffffffffffffffffffffffffffffffffffffffffffff03821115610a4b57610a4a610b4c565b5b828201905092915050565b6000610a6182610ace565b9150610a6c83610ace565b925082821015610a7f57610a7e610b4c565b5b828203905092915050565b6000610a9582610aae565b9050919050565b6000610aa782610aae565b9050919050565b600073ffffffffffffffffffffffffffffffffffffffff82169050919050565b6000819050919050565b82818337600083830152505050565b60005b83811015610b05578082015181840152602081019050610aea565b83811115610b14576000848401525b50505050565b60006002820490506001821680610b3257607f821691505b60208210811415610b4657610b45610b7b565b5b50919050565b7f4e487b7100000000000000000000000000000000000000000000000000000000600052601160045260246000fd5b7f4e487b7100000000000000000000000000000000000000000000000000000000600052602260045260246000fd5b7f4e487b7100000000000000000000000000000000000000000000000000000000600052604160045260246000fd5b6000601f19601f8301169050919050565b610bf381610a8a565b8114610bfe57600080fd5b50565b610c0a81610a9c565b8114610c1557600080fd5b50565b610c2181610ace565b8114610c2c57600080fd5b5056fea264697066735822122076be9059390eca34e643b3d88fbeb120cab9d4ec13d2dcb403766de07745ec0364736f6c63430008000033",
  "linkReferences": {},
  "deployedLinkReferences": {}
}